:020000040000FA
:0400000080312628FD
:100008007E1480318B1E09280A2812280B1D0D2802
:100018000E28122883315423803124280B1F1528D9
:10002800162824282100131E1A281B2824282000FB
:10003800131E1F282028242883318F238031242849
:100048007E100900803128283E30840082308500E7
:10005800A03086000030870040308331F92380319A
:10006800F001F101F201F301F401F50120308400FF
:100078000030850025308331FF2380317E10200039
:1000880082317E2A043026001306031D4C284D2891
:10009800E3287708F3007608F20005309300200083
:1000A8003703031D582859281029B701710873020E
:1000B800031D602870087202031C632864286B28DB
:1000C80070087202AB007108733BAC0077287108A6
:1000D800F9007008F800F809F90972087807AB0008
:1000E8007308793DAC002E08F9002D08F800F936A0
:1000F800F80CF936F80CF936F80C7808B9002C0821
:10010800F9002B08F800F936F80CF936F80CF9362E
:10011800F80C7808BA003A08390203189428952888
:10012800992839083A02B8009C283A083902B800D8
:100138003608031DA028A128B02822000E1610306A
:10014800200038020318A928AA281029B601B60ADF
:10015800B50122000E121029103038020318B528F4
:10016800B628C62822000E120130F8002000350AF1
:10017800BE28F835890BBD287808FF3AF9007908B8
:10018800F505D42822000E160130F8002000350AA3
:10019800CE28F835890BCD287808F9007908F504B8
:1001A8000130F8007808B50708303502031CDD284F
:1001B800DE28E228B6010130C300102910290530D5
:1001C8001306031DE828E92810297708F1007608A6
:1001D800F0000430930073087102031DF5287208BB
:1001E8007002031CF828F9280129720870022000FF
:1001F800AD007308713BAE000E297308F900720850
:10020800F800F809F909700878072000AD007108AE
:10021800793DAE00B701B70A080020003F08A03EAC
:10022800860087010108CA002A084A0603191D2901
:100238001E291F29CC29C83020060319242925295D
:100248002629CC298B30210603192B292C292D2965
:10025800CC29BE01BF1E3129322936298431122406
:100268008131392984310F24813120003F193D29FA
:100278003E294C29BF19412942294C293F1A4529B1
:1002880046294C2922000C118331F1238131BB29E5
:100298003F194F2950295E29BF19532954295E292E
:1002A8003F1E572958295E2922000C118331E0236B
:1002B8008131BB293F19612962297029BF1D652930
:1002C800662970293F1A69296A29702922000C11A8
:1002D8008331D7238131BB293F19732974297F2999
:1002E800BF1D772978297F293F1E7B297C297F29F3
:1002F80022000C116C293F1D822983298E29BF19E0
:10030800862987298E293F1A8A298B298E29220036
:100318000C1548293F1D912992299D29BF19952916
:1003280096299D293F1E99299A299D2922000C1159
:100338005A293F1DA029A129AC29BF1DA429A529F7
:10034800AC293F1AA829A929AC2922000C156C2927
:100358003F1DAF29B029BB29BF1DB329B429BB292B
:100368003F1EB729B829BB2922000C156C2920008B
:10037800CB014B08203E8600870181010130C9006E
:100388004908CB070B304B02031CCB29CC29BD29CC
:10039800080020004303031DD229D3293D2AC301A5
:1003A8001A2AC8307506031DDA29DB29E029C1019C
:1003B800C10A7508A0003D2AC1013D2A8B30750687
:1003C800031DE729E829E0297508A1000230C100CA
:1003D8003D2A7508A2000330C1003D2A7508A30014
:1003E8000430C1003D2A7508A4000530C1003D2A2B
:1003F8007508A5000630C1003D2A7508A60007301B
:10040800C1003D2A7508A7000830C1003D2A7508BB
:10041800A8000930C1003D2A7508A9000A30C100AA
:100428003D2A7508AA00C201C20AE0294108003A1B
:100438000319D529013A0319E229033A0319ED29C9
:10044800013A0319F229073A0319F729013A03195E
:10045800FC29033A0319012A013A0319062A0F3A1B
:1004680003190B2A013A0319102A033A0319152A0A
:10047800E02908004C349F34ED343E346634B534FA
:10048800C734143459348A34F8342B347334A034D0
:10049800D23401348E345D342F34FC34A4347734B0
:1004A8000534D6349B3448343A34E934B1346234B0
:1004B8001034C3342D34FE348C345F340734D434D0
:1004C800A63475343834EB3499344A341234C13490
:1004D800B3346034EF343C344E349D34C534163470
:1004E8006434B734FA3429345B348834D034033470
:1004F8007134A23483313B23823180302000C5001F
:100508000330C6008431052482318331F1238231DE
:100518008B170B178131CD2182318231B422823180
:1005280083310323823120003C08031D9C2A9D2A25
:10053800A82A3D03031DA12AA22AA42ABD018E2AA6
:100548008131112182318E2ABC0122000C118331A4
:10055800D72382318431122482318E2A8031262891
:1005680020002208F4002308C000BF01741DBD2A22
:10057800BE2AC02ABF16C12ABF12F41DC42AC52A22
:10058800C72A3F16C82A3F12741ECB2ACC2ACE2A65
:10059800BF15CF2ABF11F41ED22AD32AD52A3F1558
:1005A800D62A3F11C01ED92ADA2ADC2ABF14DD2A2E
:1005B800BF10401FE02AE12AE32A3F14E42A3F1033
:1005C8000800220090018C0108308D0010308E0048
:1005D800083021009000FB308C00FE308D00FB308D
:1005E8008E003E3023008D0038308C0024009001AE
:1005F80008308D002100951322009D010800063067
:1006080020002206031D092B0A2B1D2BD5302A0694
:10061800031D0F2B102B1D2BBD01BD0A8331F123A8
:10062800833122000C118431122483312000BE0151
:100638001E2BBD01080020004608C8004508C70059
:10064800C836C70CC836C70C4708260098002000D3
:1006580045080339C7000430C735890B302B2600FD
:100668001A08CF392000470426009A000800823172
:10067800E52283318331B823833184310B248331DC
:100688008331CE2383318331E92383318331C423FA
:10069800833183319E23833183316C238331080076
:1006A8000B112000440895000130AF070030B03D21
:1006B800003030020A3003192F02031C642B652B0B
:1006C8006B2B8331AB2383312000AF01B0010800CD
:1006D80021001508C039143895000630200095000F
:1006E8000630C4000B118B161530C5000430C60047
:1006F80084310524833108000130F6007608200093
:10070800BE07C8303E02031C8A2B8B2B8E2BBC01E4
:10071800BC0ABE0108002000131226001108FA00C6
:100728001208FB007B08F7007A08F60080314620A3
:1007380083310800103020009900970196011110AC
:100748001708B4001608B30001309800080020000C
:10075800310832040319B12BB22BB72B32088A00A7
:1007680031080A008331080070302100990098018F
:100778002200960121001A1FC22BC32BBE2B080092
:1007880005302600930092019101200013122100E8
:10079800131608000C3026009A00980199013F3082
:1007A80025009E05080024302000C5000330C6003F
:1007B80083311F238331080044302000C5000130F5
:1007C800C60083311F2383310800C83020009B00F6
:1007D8009A01911007309C00080000302000C500E5
:1007E800C60083311F2383310800FE0012001E005B
:1007F800FE0BFA2B0034640080010131890B002CB8
:10080800003420004608B2004508B1000800163040
:1008180021009700080022000E11080022000E1582
:0408280008000800BC
:020000040001F9
:04000E00C43FFF1FCD
:00000001FF
