:020000040000FA
:0400000080312628FD
:100008007E1480318B1E09280A2812280B1D0D2802
:100018000E28122884311524803124280B1F152816
:10002800162824282100131E1A281B2824282000FB
:10003800131E1F2820282428843150248031242886
:100048007E10090080312828FF3084008230850026
:10005800A03086000030870040308431BA248031D7
:10006800F001F101F201F301F401F50120308400FF
:100078000030850025308431C02480317E10200076
:1000880083313F2B20003F08A03E860087010108EE
:10009800CA002A084A060319522853285428C22994
:1000A800C8302006031959285A285B28C2298B30E2
:1000B80021060319602861286228C229BE013F1958
:1000C800662867287C28BF196A286B287C283F1A6D
:1000D8006E286F287C28BF1A722873287C28220073
:1000E8000C118431B22480318431D0248031B1297B
:1000F8003F197F2880289528BF19832884289528A8
:100108003F1A872888289528BF1E8B288C28952871
:1001180022000C118431B22480318431D3248031FF
:10012800B1293F1998289928AB28BF199C289D28E0
:10013800AB283F1EA028A128AB28BF1AA428A528B1
:10014800AB2822000C118431A124803178283F1972
:10015800AE28AF28C128BF19B228B328C1283F1E2E
:10016800B628B728C128BF1EBA28BB28C128220034
:100178000C118431A124803191283F19C428C52845
:10018800D728BF1DC828C928D7283F1ACC28CD286A
:10019800D728BF1AD028D128D72822000C1184319B
:1001A8009824803178283F19DA28DB28ED28BF1DEC
:1001B800DE28DF28ED283F1AE228E328ED28BF1EB5
:1001C800E628E728ED2822000C1184319824803194
:1001D80091283F19F028F1280029BF1DF428F52897
:1001E80000293F1EF828F9280029BF1AFC28FD28F5
:1001F800002922000C11D3283F19032904291329A7
:10020800BF1D0729082913293F1E0B290C2913296B
:10021800BF1E0F291029132922000C11E9283F1DA0
:10022800162917292629BF191A291B2926293F1AF1
:100238001E291F292629BF1A2229232926292200F7
:100248000C1575283F1D29292A293929BF192D2957
:100258002E2939293F1A312932293929BF1E352932
:100268003629392922000C118E283F1D3C293D29A9
:100278005229BF194029412952293F1E442945299D
:100288005229BF1A48294929522922000C118431C0
:10029800B22480318431A1248031B1293F1D5529F0
:1002A80056296529BF1959295A2965293F1E5D29EB
:1002B8005E296529BF1E61296229652922000C1162
:1002C800BD283F1D682969297829BF1D6C296D291A
:1002D80078293F1A702971297829BF1A7429752934
:1002E800782922000C15D3283F1D7B297C298B29CE
:1002F800BF1D7F2980298B293F1A832984298B29AF
:10030800BF1E872988298B2922000C15E9283F1D43
:100318008E298F299E29BF1D922993299E293F1E28
:10032800962997299E29BF1A9A299B299E29220036
:100338000C15D3283F1DA129A229B129BF1DA52924
:10034800A629B1293F1EA929AA29B129BF1EAD296D
:10035800AE29B12922000C15E9282000CB014B0851
:10036800203E8600870181010130C9004908CB077A
:100378000B304B02031CC129C229B32908000430E1
:1003880026001306031DC929CA29602A7708F30025
:100398007608F2000530930020003703031DD529A5
:1003A800D6298D2AB70171087302031DDD2970084B
:1003B8007202031CE029E129E82970087202AB00E7
:1003C8007108733BAC00F4297108F9007008F80053
:1003D800F809F90972087807AB007308793DAC0091
:1003E8002E08F9002D08F800F936F80CF936F80C43
:1003F800F936F80C7808B9002C08F9002B08F80031
:10040800F936F80CF936F80CF936F80C7808BA0011
:100418003A0839020318112A122A162A39083A0208
:10042800B800192A3A083902B8003608031D1D2AEF
:100438001E2A2D2A22000E1610302000380203181A
:10044800262A272A8D2AB601B60AB50122000E12DD
:100458008D2A103038020318322A332A432A220000
:100468000E120130F8002000350A3B2AF835890BB6
:100478003A2A7808FF3AF9007908F505512A220046
:100488000E160130F8002000350A4B2AF835890B82
:100498004A2A7808F9007908F5040130F800780844
:1004A800B50708303502031C5A2A5B2A5F2AB601B1
:1004B8000130C3008D2A8D2A05301306031D652AD5
:1004C800662A8D2A7708F1007608F0000430930038
:1004D80073087102031D722A72087002031C752AC0
:1004E800762A7E2A720870022000AD007308713BDC
:1004F800AE008B2A7308F9007208F800F809F909A8
:10050800700878072000AD007108793DAE00B7018A
:10051800B70A080020004303031D932A942AFE2AE1
:10052800C301DB2AC8307506031D9B2A9C2AA12A11
:10053800C101C10A7508A000FE2AC101FE2A8B303C
:100548007506031DA82AA92AA12A7508A100023048
:10055800C100FE2A7508A2000330C100FE2A7508F2
:10056800A3000430C100FE2A7508A4000530C100AC
:10057800FE2A7508A5000630C100FE2A7508A600E7
:100588000730C100FE2A7508A7000830C100FE2AFE
:100598007508A8000930C100FE2A7508A9000A30AC
:1005A800C100FE2A7508AA00C201C20AA12A410890
:1005B800003A0319962A013A0319A32A033A0319A0
:1005C800AE2A013A0319B32A073A0319B82A013A9D
:1005D8000319BD2A033A0319C22A013A0319C72A83
:1005E8000F3A0319CC2A013A0319D12A033A0319FD
:1005F800D62AA12A08004C349F34ED343E346634A0
:10060800B534C734143459348A34F8342B34733439
:10061800A034D23401348E345D342F34FC34A43405
:1006280077340534D6349B3448343A34E934B13419
:1006380062341034C3342D34FE348C345F340734C0
:10064800D434A63475343834EB3499344A341234FB
:10065800C134B3346034EF343C344E349D34C53443
:1006680016346434B734FA3429345B348834D034DB
:1006780003347134A2348331FC23833141302000A8
:10068800C5000430C6008431C62483318431B224C5
:1006980083318B170B1782318E2283318331752377
:1006A80083318331C423833120003C08031D5D2B33
:1006B8005E2B692B3D03031D622B632B652BBD014C
:1006C8004F2B8031462083314F2BBC0122000C1167
:1006D8008431982483318431D32483314F2B803162
:1006E800262820002208F4002308C000BF01741D3A
:1006F8007E2B7F2B812BBF16822BBF12F41D852BDF
:10070800862B882B3F16892B3F12741E8C2B8D2B22
:100718008F2BBF15902BBF11F41E932B942B962B68
:100728003F15972B3F11C01E9A2B9B2B9D2BBF1457
:100738009E2BBF10401FA12BA22BA42B3F14A52B2F
:100748003F100800220090018C0108308D00103005
:100758008E00083021009000FB308C00FE308D00A8
:10076800FB308E003E3023008D0038308C00240092
:10077800900108308D002100951322009D0108008A
:10078800063020002206031DCA2BCB2BDE2BD530CA
:100798002A06031DD02BD12BDE2BBD01BD0A8431C7
:1007A800B224833122000C118431D32483312000F8
:1007B800BE01DF2BBD01080020004608C80045081F
:1007C800C700C836C70CC836C70C470826009800AB
:1007D800200045080339C7000430C735890BF12BC1
:1007E80026001A08CF392000470426009A0008007E
:1007F8008331A62383318431792483318431CC2415
:10080800833184318F2483318431AA248331843124
:100818008524833184315F24833184312D248331CD
:1008280008000B112000440895000130AF07003084
:10083800B03D003030020A3003192F02031C252C6A
:10084800262C2C2C84316C2484312000AF01B0017B
:10085800080021001508C03914389500063020001A
:1008680095000630C4000B118B16D630C500043035
:10087800C6008431C624843108000130F6007608A9
:100888002000BE07C8303E02031C4B2C4C2C4F2CBA
:10089800BC01BC0ABE010800200013122600110882
:1008A800FA001208FB007B08F7007A08F60081318D
:1008B800C321843108001030200099009701960167
:1008C80011101708B4001608B3000130980008008A
:1008D8002000310832040319722C732C782C32084A
:1008E8008A0031080A00843108007030210099001C
:1008F80098012200960121001A1F832C842C7F2C3A
:10090800080005302600930092019101200013127F
:100918002100131608000C3026009A00980199014E
:100928003F3025009E05080024302000C500033014
:10093800C6008331E0238431080044302000C5001C
:100948000130C6008331E02384310800C83020001C
:100958009B009A01911007309C000800003020008D
:10096800C500C6008331E02384310800FE00120070
:100978001E00FE0BBB2C0034640080010131890B82
:10098800C12C003420004608B2004508B100080018
:10099800163021009700080022000E1108002200DE
:0609A8000E150800080016
:020000040001F9
:04000E00C43FFF1FCD
:00000001FF
