:0400000080312628FD
:100008007E1480318B1E09280A2812280B1D0D2802
:100018000E2812288331F723803124280B1F152836
:10002800162824282100131E1A281B2824282000FB
:10003800131E1F28202824288431322480312428A4
:100048007E10090080312828FB308400823085002A
:10005800A03086000030870040308431822480310F
:10006800F001F101F201F301F401F50120308400FF
:100078000030850025308431882480317E102000AE
:1000880083313B2B20004008A03E860087010108F1
:10009800C6002A0846060319522853285428BE29A0
:1000A800C8302006031959285A285B28BE298B30E6
:1000B80021060319602861286228BE29BF0140195A
:1000C800662867287B28C0196A286B287B28401A6D
:1000D8006E286F287B28C01A722873287B28220074
:1000E8000C118431A324803125009101AD294019D8
:1000F8007E287F289428C019822883289428401AAB
:10010800862887289428C01E8A288B2894282200AD
:100118000C118431A32480318431A0248031AD298D
:10012800401997289828AD28C0199B289C28AD28E5
:10013800401E9F28A028AD28C01AA328A428AD28AF
:1001480022000C118431A324803184319C24803115
:10015800AD294019B028B128C028C019B428B5283D
:10016800C028401EB828B928C028C01EBC28BD28F1
:10017800C02822000C11A6284019C328C428D62854
:10018800C01DC728C828D628401ACB28CC28D6286E
:10019800C01ACF28D028D62822000C1184319824E0
:1001A800803178284019D928DA28EF28C01DDD28A1
:1001B800DE28EF28401AE128E228EF28C01EE528AB
:1001C800E628EF2822000C118431982480318431EC
:1001D800A0248031AD294019F228F3280229C01D36
:1001E800F628F7280229401EFA28FB280229C01AF7
:1001F800FE28FF28022922000C11D22840190529BF
:1002080006291529C01D09290A291529401E0D2965
:100218000E291529C01E11291229152922000C1191
:10022800E828401D182919292829C0191C291D2921
:100238002829401A202921292829C01A24292529B2
:10024800282922000C157528401D2B292C293B290B
:10025800C0192F2930293B29401A332934293B2931
:10026800C01E372938293B2922000C118D28401D32
:100278003E293F294E29C019422943294E29401EAB
:10028800462947294E29C01A4A294B294E292200B6
:100298000C11A628401D512952296129C019552938
:1002A80056296129401E59295A296129C01E5D29EC
:1002B8005E29612922000C11A628401D64296529A0
:1002C8007429C01D682969297429401A6C296D2967
:1002D8007429C01A70297129742922000C15D22892
:1002E800401D772978298729C01D7B297C298729E2
:1002F800401A7F2980298729C01E832984298729B4
:1003080022000C15E828401D8A298B299A29C01D2E
:100318008E298F299A29401E922993299A29C01A31
:10032800962997299A2922000C15D228401D9D2923
:100338009E29AD29C01DA129A229AD29401EA529A4
:10034800A629AD29C01EA929AA29AD2922000C1564
:10035800E8282000C7014708203E86008701810160
:100368000130C5004508C7070B304702031CBD29EB
:10037800BE29AF290800043026001306031DC5292D
:10038800C6295C2A7708F3007608F2000530930046
:1003980020003803031DD129D229892AB801710800
:1003A8007302031DD92970087202031CDC29DD2998
:1003B800E42970087202B1007108733BB200F02999
:1003C8007108F9007008F800F809F9097208780747
:1003D800B1007308793DB2003408F9003308F80019
:1003E800F936F80CF936F80CF936F80C7808BA0032
:1003F8003208F9003108F800F936F80CF936F80C2B
:10040800F936F80C7808BB003B083A0203180D2AA5
:100418000E2A122A3A083B02B900152A3B083A026A
:10042800B9003708031D192A1A2A292A22000E168C
:100438001030200039020318222A232A892AB701FA
:10044800B70AB60122000E12892A103039020318A1
:100458002E2A2F2A3F2A22000E120130F8002000EF
:10046800360A372AF835890B362A7808FF3AF90010
:100478007908F5054D2A22000E160130F8002000F3
:10048800360A472AF835890B462A7808F900790888
:10049800F5040130F8007808B60708303602031C66
:1004A800562A572A5B2AB7010130C400892A892AAB
:1004B80005301306031D612A622A892A7708F1008C
:1004C8007608F0000430930073087102031D6E2A49
:1004D80072087002031C712A722A7A2A7208700242
:1004E8002000B3007308713BB400872A7308F90031
:1004F8007208F800F809F909700878072000B300B5
:100508007108793DB400B801B80A08002000440316
:10051800031D8F2A902AFA2AC401D72AC8307506E3
:10052800031D972A982A9D2AC201C20A7508A000AD
:10053800FA2AC201FA2A8B307506031DA42AA52AB5
:100548009D2A7508A1000230C200FA2A7508A20087
:100558000330C200FA2A7508A3000430C200FA2A40
:100568007508A4000530C200FA2A7508A5000630EF
:10057800C200FA2A7508A6000730C200FA2A7508D0
:10058800A7000830C200FA2A7508A8000930C2007E
:10059800FA2A7508A9000A30C200FA2A7508AA00C2
:1005A800C301C30A9D2A4208003A0319922A013A54
:1005B80003199F2A033A0319AA2A013A0319AF2AF1
:1005C800073A0319B42A013A0319B92A033A031955
:1005D800BE2A013A0319C32A0F3A0319C82A013A55
:1005E8000319CD2A033A0319D22A9D2A08004C344C
:1005F8009F34ED343E346634B534C734143459343A
:100608008A34F8342B347334A034D23401348E3421
:100618005D342F34FC34A43477340534D6349B3419
:1006280048343A34E934B13462341034C3342D34A4
:10063800FE348C345F340734D434A63475343834FB
:10064800EB3499344A341234C134B3346034EF345F
:100658003C344E349D34C53416346434B734FA34DB
:1006680029345B348834D03403347134A234833170
:10067800DE23833123302000C5000430C6008431D6
:100688008E2483318431A3248331250091018B1773
:100698000B1782318A22833183317323833183316B
:1006A800C223833120003D08031D5B2B5C2B672B85
:1006B8003E03031D602B612B632BBE014D2B803144
:1006C800462083314D2BBD0122000C118431982422
:1006D80083318431A02483314D2B8031262820009A
:1006E8002208F4002308C100C001741D7C2B7D2B57
:1006F8007F2BC016802BC012F41D832B842B862BD6
:100708004016872B4012741E8A2B8B2B8D2BC015FD
:100718008E2BC011F41E912B922B942B4015952BE8
:100728004011C11E982B992B9B2BC0149C2BC010D9
:10073800411F9F2BA02BA22B4014A32B4010080075
:10074800220090018C0108308D0010308E00083096
:1007580021009000FB308C00FF308D00FB308E00B4
:100768003E3023008D0038308C0024009001083082
:100778008D002100951322009D01080006302000FD
:100788002206031DC82BC92BDC2BD5302A06031DD6
:10079800CE2BCF2BDC2BBE01BE0A8431A3248331A0
:1007A80022000C118431A02483312000BF01DD2BED
:1007B800BE0108008331A423833184315B24833153
:1007C80084319424833184317124833184316724C2
:1007D800833184317A2483318431412483318431D3
:1007E8000F24833108000B112000350895000130D3
:1007F800AD070030AE3D00302E020A3003192D023D
:10080800031C072C082C0E2C84314E248331200025
:10081800AD01AE01080021001508C0391438950053
:100828000630200095000630B5000B118B16A63057
:10083800C5000430C60084318E248431080001309C
:10084800F60076082000BF07C8303F02031C2D2C95
:100858002E2C312CBD01BD0ABF0108002000131247
:1008680026001108FA001208FB007B08F7007A0836
:10087800F6008131BF218431080010302000990032
:100888009701960111101708AC001608AB0001304B
:100898009800080020002F0830040319542C552C08
:1008A8005A2C30088A002F080A008431080070305A
:1008B8002100990098012200960121001A1F652C39
:1008C800662C612C080005302600930092019101E6
:1008D800200013122100131608001C3026009A006D
:1008E800980199013F3025009E050800C830200076
:1008F8009B009A01911007309C000800FE0012002E
:100908001E00FE0B832C0034640080010131890B2A
:10091800892C003420004608B0004508AF000800C4
:100928001630210097000800C930260098000800FA
:10093800513026009800080022000E1508002600F5
:0609480098010800080000
:020000040001F9
:08000000FF3FFF3FFF3FFF3F00
:04000E00C43FFF1FCD
:00000001FF
